:02000000FE2BD5
:1006F00019308316850020308312850083169F01F0
:1007000095010430831292003430831692000F302A
:1007100083129500183093005730F9006130FA00C9
:100720004B30FB006530FC00F401831285107C081F
:10073000F8007B08F7007A08F6007908F500103019
:10074000F1009430F000F00BA32BF10BA32B000071
:10075000F30183128510EF30F000AE2BF00BAD2BC0
:10076000B12BB22B75080139F000700C8312031CF9
:10077000BB2B8514BC2B8510EF300310F80CF70C45
:10078000F60CF50CF000C42BF00BC32BC72BC82BB9
:10079000F8138312051AF8172030F30A7302831234
:1007A000031CAA2B85140230F2000430F100BA3089
:1007B000F000F00BD92BF10BD92BF20BD92B000049
:1007C0007C087806031DEE2B7B087706031DEE2BB5
:1007D0007A087606031DEE2B79087506031DF32BA8
:1007E00083128516942B7408FF3A031DF40A08300F
:1007F00074028312031C962B8512952B8301782B90
:02400E00E4FCD0
:00000001FF
